:020000040800F2
:10000000FCFF0020351000002D1000002D10000016
:100010002D1000002D1000002D1000002D100000EC
:100020002D1000002D1000002D1000002D100000DC
:100030002D1000002D1000002D1000002D100000CC
:100040002D1000002D1000002D1000002D100000BC
:100050002D1000002D1000002D1000002D100000AC
:100060002D1000002D1000002D1000002D1000009C
:100070002D1000002D1000002D1000002D1000008C
:100080002D1000002D1000002D1000002D1000007C
:100090002D1000002D1000002D1000002D1000006C
:1000A0002D1000002D1000002D1000002D1000005C
:1000B0002D1000002D1000002D1000002D1000004C
:1000C0002D1000002D1000002D1000002D1000003C
:1000D0002D1000002D1000002D1000002D1000002C
:1000E0002D1000002D1000002D1000002D1000001C
:1000F0002D1000002D1000002D1000002D1000000C
:100100002D1000002D1000002D1000002D100000FB
:100110002D1000002D1000002D1000002D100000EB
:100120002D1000002D1000002D1000002D100000DB
:100130002D1000002D1000002D1000002D100000CB
:100140002D1000002D1000002D1000002D100000BB
:1001500081B000F20C02116000F208021368C3F3D0
:10016000000202B9F8E700F20C02126890B201B086
:100170007047FFFF83B0CDF800E000F0FF031A09DD
:10018000104603F00F02134614E0194A02921FE0D2
:10019000184A02921CE0184A029219E0174A029289
:1001A00016E0174A029213E0164A029210E0164A2D
:1001B00002920DE00028E8D00128E9D00228EAD018
:1001C0000328EBD00428ECD00528EDD00628EED08B
:1001D000012212B29A40ADF8042002980A46BDF8F6
:1001E000041000F011F9DDF800E003B0704700BF23
:1001F00000080140000C01400010014000140140C3
:1002000000180140001C01400020014081B0194944
:1002100000EA0101084600220EE0042022E0082046
:1002200020E010201EE020201CE040201AE080206A
:1002300018E040F2001015E00F498842EDD00F4958
:100240008842ECD00E498842EBD00E498842EAD071
:100250000D498842E9D00D498842E8D00C498842CE
:10026000E7D010460B49096841EA000209490A60D3
:1002700001B0704700FCFFFF00080140000C014086
:10028000001001400014014000180140001C014012
:10029000002001401810024081B0CDF800E081B28A
:1002A0000348FFF755FFDDF800E001B0704700BFDD
:1002B0000030014081B000230360CB009BB242EAD2
:1002C000030304689BB244EA03030360051D13148F
:1002D0001C462B6864F382032B6000F21C0500248B
:1002E0002B6864F3CB232B600124036864F386132B
:1002F000036001B07047FFFF81B0CDF800E001223C
:1003000052B23E490A6000F268010B686FF000616A
:1003100003EA0102144603F00061C90E0B4602F025
:100320000041B1F1004F02D135490A6801E0354979
:100330000A6804F47021090C0E464FF6FF7104EAB6
:1003400001010D4604F44011B1F5401F0DD16FF0CD
:10035000706102EA01010E462A490A686FF0706175
:100360000A4028490A60324616E004F48011B1F5CB
:10037000801F09D14FF00301B140C94302EA0101D6
:1003800041F070610A4607E0610D090105FA01F1CB
:10039000C9430A4042F070622BB1610D090105FAB0
:1003A00001F10A43FFE704F00041B1F1004F02D12F
:1003B00013490A6001E013490A6040F2000A8146CD
:1003C0004FEA8A0109EB01010968B1F1FF3F10D042
:1003D00009F134014FEA8A03C91809680A4609EB92
:1003E0000301096808461146FFF7C4FE0AF1010A35
:1003F000E6E7DDF800E001B0704700BF00034242CD
:100400001C0001400400014081B0CDF800E08CB236
:100410001546774B00EA03031E461846FFF7F6FE23
:10042000B4F1FF0F0CD1734B9D4203D14FF0333326
:100430003360D9E0422D03D14FF044333360D3E031
:100440004FF6FF739C4214D16A4B9D4207D14FF087
:1004500033333360341D4FF033332360C4E0422D17
:1004600007D14FF044333360341D4FF044332360E1
:10047000BAE00021002005F001030BB100211DE0CE
:1004800005F0020333B105F4C0730BB1082100E09D
:10049000042113E005F0040333B105F020030BB190
:1004A000042100E0002109E005F0080333B105F064
:1004B00020030BB10C2100E00821FFE74E4B05EAB9
:1004C00003030BB1032009E005F400730BB1022014
:1004D00004E005F480630BB10120FFE705F00C0395
:1004E0000BB10143FFE704F0FF039BB2002B3BD0AD
:1004F000376800201FFA84F832462E4608282CD28E
:100500004FF0010303FA00F408EA0403A34222D1E6
:1005100085004FF00F03AB40DB4307EA030401FA09
:1005200005F344EA03031D4606F48173B3F5817FA6
:1005300005D102F214044FF001038340236006F05A
:100540008203822B05D102F210044FF00103834095
:1005500023602F46FFE7401CD0E717601FFA88F0A2
:100560000F463146164602E00F462946A0B2B0F1CA
:10057000FF0F39D9331DD3F800800022082A30D26A
:1005800002F208044FF0010303FA04F400EA040342
:10059000A34224D195004FF00F03AB40DB4308EAA0
:1005A000030807FA05F348EA030801F48173B3F579
:1005B000817F07D106F2140502F208044FF001030F
:1005C000A3402B6001F08203822B07D106F21005B5
:1005D00002F208044FF00103A3402B60FFE7521C16
:1005E000CCE7331DC3F80080DDF800E001B07047B0
:1005F00000FCFFFF140008000008080081B0CDF8DF
:1006000000E081B20348FFF7A3FDDDF800E001B090
:10061000704700BF0038004081B0CDF800E081B2E3
:100620000348FFF795FDDDF800E001B0704700BF1B
:10063000003C004083B0CDF800E08DF8040002914A
:100640000B4C0C4B1C600C4C0C4B1C60012464B21A
:100650000B4B1C601046FFF74FFE029A9DF80410EA
:100660000848FFF727FEDDF800E003B0704700BF41
:10067000FFFFFFFF1C0000201906000020000020E3
:10068000BC034242003C00404DF2BF47C0F20107AC
:100690007F1EFDD100BF00BF00BF00BF00BF70477D
:1006A00081B0CDF800E0044A89B2FFF7ADFEDDF875
:1006B00000E001B0704700BF1400080081B0CDF821
:1006C00000E04FF0420289B2FFF79EFEDDF800E045
:1006D00001B0704783B0CDF800E08AB2014690B215
:1006E00083B2421E90B26BB10A78D4B2ADF8040066
:1006F0000291A0B2054C2468A0470299BDF80400FD
:10070000491CEDE7DDF800E003B070470000002071
:1007100001490860704700BFB001224201490860EA
:10072000704700BFAC01224201490860704700BF1A
:10073000B081224201490860704700BFB081224267
:1007400001490860704700BF8C01224201490860DE
:10075000704700BF9401214201490860704700BF03
:10076000A801224201490860704700BFB8812242B7
:1007700001490860704700BF988122422D280AD3A2
:100780005F2808D8A0F22D0109B24A000349891850
:10079000098888B201E04FF6FF7070470012000030
:1007A00000F208010A6808490A60011D0A68074941
:1007B0000A6000F218010A6805490A6000F21C018B
:1007C0000A6804490A607047080000200C000020F5
:1007D000100000201400002084B0CDF800E0ADF837
:1007E0000800ADF80C1000232F4A13802F4A1388FD
:1007F0002D4A12889A4253D201ACBDF80C20120A3D
:100800002270631CBDF80C2002F0FF021A70A31CBA
:10081000BDF80820120A1A70E31CBDF8082002F087
:10082000FF021A700020224C2468A04701AA04216C
:100830001046FFF74FFF01201D4C2468A047002001
:100840001C4C2468A047FFF71FFF0120194C2468A7
:10085000A0470020184C2468A0470120164C2468AB
:10086000A0470020154C2468A047FFF70DFF01208A
:10087000124C2468A04700200D4C2468A04701209A
:100880000B4C2468A04700200A4C2468A047012094
:10089000084C2468A047044B1A88521C1A80A5E70C
:1008A000DDF800E004B070471A00002018000020B6
:1008B00008000020100000200C0000201400002080
:1008C000002809D3092807D8C11C09B24A000449E5
:1008D0008918098888B201E04FF6FF70704700BFA1
:1008E0000012000001490860704700BF9881214252
:1008F00001490860704700BF9481224202680349A1
:100900000A60011D0A6802490A6070470000002061
:100910000400002001490860704700BF9C8121420B
:1009200001490860704700BF9C812142014908606D
:10093000704700BF9001214201490860704700BF25
:100940008801224201490860704700BFB4812242F9
:1009500081B0CDF800E0A9E0012905D140F21001F5
:100960006548FFF7ABFE04E040F210016248FFF774
:1009700097FEBBE0012905D140F204015F48FFF773
:100980009DFE04E040F204015C48FFF789FEADE003
:10099000012905D142F200015948FFF78FFE04E01A
:1009A00042F200015648FFF77BFE9FE0012905D186
:1009B00040F200415148FFF781FE04E040F200415F
:1009C0004E48FFF76DFE91E0012905D140F6000188
:1009D0004A48FFF773FE04E040F600014748FFF77E
:1009E0005FFE83E0012905D141F200014348FFF792
:1009F00065FE04E041F200014048FFF751FE75E05A
:100A0000012905D140F201013B48FFF757FE04E000
:100A100040F201013848FFF743FE67E0012905D1A4
:100A200040F200413648FFF749FE04E040F2004141
:100A30003348FFF735FE59E0012905D140F2002186
:100A40002F48FFF73BFE04E040F200212C48FFF75F
:100A500027FE4BE0012905D140F200112848FFF79D
:100A60002DFE04E040F200112548FFF719FE3DE09D
:100A7000012905D140F240012248FFF71FFE04E0A2
:100A800040F240011F48FFF70BFE2FE0012905D17E
:100A900040F280011B48FFF711FE04E040F28001A4
:100AA0001848FFF7FDFD21E0012020E000283FF479
:100AB00053AF01283FF45EAF02283FF469AF03282B
:100AC0003FF474AF04283FF47FAF05283FF48AAFAA
:100AD00006283FF495AF0728A0D00828ACD00928F5
:100AE000B8D00A28C4D00B28D0D0DDE70020DDF82C
:100AF00000E001B0704700BF000801400010014055
:100B000000140140000C014081B0CDF800E0011D4F
:100B10000A680168C8B21146034AFFF78BFD00203E
:100B2000DDF800E001B070479411000081B0CDF80D
:100B300000E0011D0A680168C8B21146034AFFF7C8
:100B400079FD0020DDF800E001B07047941100004D
:100B500081B0CDF800E0A9E0012905D140F22001E3
:100B60006548FFF7ABFD04E040F220016248FFF763
:100B700097FDBBE0012905D140F208015F48FFF76E
:100B80009DFD04E040F208015C48FFF789FDADE0FF
:100B9000012905D144F200015948FFF78FFD04E017
:100BA00044F200015648FFF77BFD9FE0012905D183
:100BB00040F200415148FFF781FD04E040F200415E
:100BC0004E48FFF76DFD91E0012905D140F6000187
:100BD0004A48FFF773FD04E040F600014748FFF77D
:100BE0005FFD83E0012905D141F200014348FFF791
:100BF00065FD04E041F200014048FFF751FD75E05A
:100C0000012905D141F200013D48FFF757FD04E0FD
:100C100041F200013A48FFF743FD67E0012905D1A1
:100C200040F600013648FFF749FD04E040F60001B8
:100C30003348FFF735FD59E0012905D140F2400165
:100C40002F48FFF73BFD04E040F240012C48FFF73E
:100C500027FD4BE0012905D140F220012848FFF78C
:100C60002DFD04E040F220012548FFF719FD3DE08D
:100C7000012905D140F240012248FFF71FFD04E0A1
:100C800040F240011F48FFF70BFD2FE0012905D17D
:100C900040F280011B48FFF711FD04E040F28001A3
:100CA0001848FFF7FDFC21E0012020E000283FF478
:100CB00053AF01283FF45EAF02283FF469AF032829
:100CC0003FF474AF04283FF47FAF05283FF48AAFA8
:100CD00006283FF495AF0728A0D00828ACD00928F3
:100CE000B8D00A28C4D00B28D0D0DDE70020DDF82A
:100CF00000E001B0704700BF000801400010014053
:100D000000140140000C014001490860704700BF19
:100D1000A801224201490860704700BFA081224219
:100D200001490860704700BFA8812242014908605C
:100D3000704700BFA481224201490860704700BF8C
:100D40009881214201490860704700BFAC012242EE
:100D500001490860704700BFB001224201490860A4
:100D6000704700BF8001214281B0CDF800E08B4682
:100D700009E05846FFF7DAFE0AE05846FFF7C4FEDE
:100D800006E0012004E00028F3D00128F5D0F8E7C0
:100D9000DDF800E001B0704782B0CDF800E0C3B2EA
:100DA000C8B2FFF78DFDADF80400D8B2FFF788FD9B
:100DB000BDF8042091B2FFF70FFDDDF800E002B0AE
:100DC0007047FFFF81B0CDF800E05FFA81F95FFA6C
:100DD00082FA0FE05FFA8AF15FFA89F0FFF7B8FD57
:100DE0000DE05FFA8AF15FFA89F0FFF7B1FE06E0E5
:100DF000012004E00028EDD00128F2D0F8E7DDF86A
:100E000000E001B07047FFFF81B0CDF800E003467D
:100E10000846FFF773FD1846FFF7C2FC0020094C97
:100E20002468A0470020084C2468A0470120074CF4
:100E30002468A0470120064C2468A047DDF800E0A4
:100E400001B07047080000200C00002014000020B2
:100E500010000020FFFFFFFF44F67F77C0F212076B
:100E60007F1EFDD100BF00BF00BF00BF00BF7047A5
:100E700082B0CDF800E0C3B2C8B2FFF77FFCADF896
:100E80000400D8B2FFF77AFCBDF8042091B2FFF756
:100E9000A3FCDDF800E002B07047FFFF1421B0FBB7
:100EA000F1F201490A8070471800002081B01CF857
:100EB000019B0BF8019BBBEB0A0FF8D101B0704707
:100EC00081B01548006840F00101134801601349E2
:100ED0001348016010480168124801400E48016043
:100EE0000D4801686FF4802001400B4801600C48F8
:100EF00001686FF4FE00014009480160064801687E
:100F00006FF0A0500140044801604FF00001064816
:100F1000016001B0704700BF001002400000FFF008
:100F200004100240FFFFF6FE2C10024081B04FF08B
:100F300000094FF0000CBDEB0A0F04DCBDEB0B0FFA
:100F400001DBD446EA464BF8049BBBEB0A0FFAD10F
:100F5000BCEB0A0F05DDE246D9F800B00BF1040B3B
:100F6000F1E701B07047FFFF81B0CDF800E0044920
:100F70000448FFF749FFDDF800E001B0704700BF0B
:100F8000D01200006812000081B0CDF800E040F2FD
:100F9000E830FFF783FF45214D20FFF769FF3F2130
:100FA0004020FFF765FF01210020FFF7F5FE022139
:100FB0000120FFF7F1FE03210220FFF7EDFE0421DF
:100FC0000320FFF7E9FEDDF800E001B07047FFFF06
:100FD00081B0CDF800E0002202210020FFF7F2FEF0
:100FE000002201210020FFF7EDFE00220621002053
:100FF000FFF7E8FE002207210020FFF7E3FE054887
:1010000001460020FFF7B0FEFFF726FFDDF800E005
:1010100001B07047C812000081B002490248016067
:1010200001B07047401901002400002081B0FEE7A4
:1010300001B0704700F00CF800F04EF9FFF7ECFF3C
:10104000FFF7C6FFFFF790FFFFF79EFFFCE7FEE705
:1010500081B0CDF800E0464A464B474C47494BF635
:101060008030814206D94648006840F00201444879
:10107000016011E045F6C050814206D94048006841
:1010800040F001013E48016006E03D4801686FF014
:10109000070001403A480160FFF712FF394803603A
:1010A00039480460394802EA00013948016002F019
:1010B000010040B119463648006800F002000028DF
:1010C00000D1F8E700E0194602F4803040B10B4649
:1010D0002F48006800F40030002800D1F8E700E055
:1010E0000B4602F0805068B12948006840F08051FA
:1010F000274801602648006800F00050002800D111
:10110000F8E7FFE702F0806078B12148006840F01E
:1011100080611F48016011461A461D48006800F0B2
:101120000060002800D1F8E701E011461A4601F0FE
:10113000807070B11648006840F0807114480160FA
:1011400011461348006800F0007000B9F9E70A463C
:10115000FFE70C48006800F00C01900000F00C0064
:10116000814200D0F5E7DDF800E001B0704700BF34
:101170008100010502841D004406010040190100A0
:1011800000200240041002402C100240FFFF0F001C
:10119000001002402A0000002B0000002C0000007C
:1011A000FFFFFFFF00000000000000000000000043
:1011B000000000000000000000000000000000002F
:1011C00000000000000000001808000018080000DF
:1011D00018080000000000000000000000000000EF
:1011E00000000000000000000000000000000000FF
:1011F00000000000000000000000000000112008B6
:101200000003004080083F0006001B030F03260375
:101210002D033D0307003F032F03401040088004C7
:101220007607002823127B0237034F1239004F1034
:10123000390331033D02360340101E00B00538006B
:10124000B62036243F0033033F4433072D03631099
:101250003E00B008360C802C80308908390000240C
:101260000F008100080000002D090000390900006E
:1012700045090000090D0000450D0000510D00005A
:101280005D0D0000210D00002D0D0000150D00006A
:10129000390D000021090000FFFFFFFFFFFFFFFFE6
:1012A000FFFFFFFFFFFFFFFFFFFFFFFFFFFFFFFF4E
:1012B000FFFFFFFFFFFFFFFFFFFFFFFFFFFFFFFF3E
:1012C000FFFFFFFFFFFFFFFF070000000403000018
:1012D00019060000FFFFFFFF00B5DFF810B0DFF8D0
:1012E00010A0FFF723FE00BD704700BF00000020E4
:1012F00028000020FFFFFFFFFFFFFFFFFFFFFFFFB2
:00000001FF
