:10000000FCFF0320951500004D1500004D15000064
:100010004D1500004D1500004D1500004D15000058
:100020004D1500004D1500004D1500004D15000048
:100030004D1500004D1500004D1500004D15000038
:100040004D1500004D1500004D1500004D15000028
:100050004D1500004D1500004D1500004D15000018
:100060004D1500004D1500004D1500004D15000008
:100070004D1500004D1500004D1500004D150000F8
:100080004D1500004D1500004D1500004D150000E8
:100090004D1500004D1500004D1500004D150000D8
:1000A0004D1500004D1500004D1500004D150000C8
:1000B0004D1500004D1500004D1500004D150000B8
:1000C0004D1500004D1500004D1500004D150000A8
:1000D0004D1500004D1500004D1500004D15000098
:1000E0004D1500004D1500004D1500004D15000088
:1000F0004D1500004D1500004D1500004D15000078
:100100004D1500004D1500004D1500004D15000067
:100110004D1500004D1500004D1500004D15000057
:100120004D1500004D1500004D1500004D15000047
:100130004D1500004D1500004D1500004D15000037
:100140004D1500004D1500004D1500004D15000027
:100150004D1500004D1500004D1500004D15000017
:100160004D1500004D1500004D1500004D15000007
:100170004D1500004D1500004D1500004D150000F7
:100180004D1500004D1500004D1500004D150000E7
:100190004D1500004D1500004D1500004D150000D7
:1001A0004D1500004D1500004D1500004D150000C7
:1001B0004D1500004D1500004D1500004D150000B7
:1001C0004D1500004D1500004D1500004D150000A7
:1001D0004D1500004D1500004D1500004D15000097
:1001E0004D1500004D1500004D1500004D15000087
:1001F0004D1500004D1500004D1500004D15000077
:080200004D1500004D15000032
:1015940000F00EF8FFF7DCFF00F050F9FFF7EEFF64
:1015A400FFF72EFFFFF7C0FFFFF74EFFFCE7FEE754
:1013C80081B04FF000094FF0000CBDEB0A0F04DCB0
:1013D800BDEB0B0F01DBD446EA464BF8049BBBEB95
:1013E8000A0FFAD1BCEB0A0F05DDE246D9F800B0C6
:0A13F8000BF1040BF1E701B07047A0
:1014040081B0CDF800E0002202210020FFF716FF92
:10141400002201210020FFF711FF002206210020F5
:10142400FFF70CFF002207210020FFF707FF054804
:1014340001460020FFF7DEFEFFF7B8FFDDF800E00D
:0814440001B070472018000000
:1012400081B0CDF800E05FFA81FA5FFA82FB0FE02F
:101250005FFA8BF15FFA8AF0FFF710FE0DE05FFA9C
:101260008BF15FFA8AF0FFF7D1FE06E0012004E07F
:101270000028EDD00128F2D0F8E7DDF800E001B059
:021280007047B5
:100E7C0081B0CDF800E091E0012904D110215A484D
:100E8C00FFF7EEFE03E010215748FFF7D3FEA5E075
:100E9C00012904D101215448FFF7E2FE03E00121AE
:100EAC005148FFF7C7FE99E0012904D101214F48B1
:100EBC00FFF7D6FE03E001214C48FFF7BBFE8DE0A7
:100ECC00012904D104214A48FFF7CAFE03E004219A
:100EDC004748FFF7AFFE81E0012904D110214448B7
:100EEC00FFF7BEFE03E010214148FFF7A3FE75E0BB
:100EFC00012904D120213E48FFF7B2FE03E0202156
:100F0C003B48FFF797FE69E0012904D101213948DC
:100F1C00FFF7A6FE03E001213648FFF78BFE5DE0EC
:100F2C00012904D110213448FFF79AFE03E0102167
:100F3C003148FFF77FFE51E0012904D140212F48B1
:100F4C00FFF78EFE03E040212C48FFF773FE45E0CF
:100F5C00012904D180212948FFF782FE03E080217A
:100F6C002648FFF767FE39E0012904D104211F4808
:100F7C00FFF776FE03E004211C48FFF75BFE2DE033
:100F8C00012904D108211948FFF76AFE03E0082162
:100F9C001648FFF74FFE21E0012020E000283FF427
:100FAC006BAF01283FF474AF02283FF47DAF0328E8
:100FBC003FF486AF04283FF48FAF05283FF498AF79
:100FCC0006283FF4A1AF0728AAD00828B4D00928D6
:100FDC00BED00A28C8D00B28D2D0DDE70020DDF81F
:100FEC0000E001B0704700BF00C005400090054014
:100FFC000080054000B0054000D0054000A0054031
:100C6C0081B0CDF800E0002440F240031BB240F20A
:100C7C00001212B21A4393B2002210B4FFF72EFCEA
:0A0C8C0001B0DDF800E001B0704790
:1004E80082B0CDF800E05FFA81F8D5B29FB29DF8EE
:1004F8000830F54C00EA0404A1462046FFF780FEC8
:10050800F24CA54208D109F580666FEA0805EDB2FC
:1005180034682C40346008E0ED4CA54205D109F55B
:1005280080652C6844EA08042C6040F2010407EA5C
:100538000404A4B234B109F5A2652C6844EA08049D
:100548002C6007E009F5A2666FEA0805EDB2346889
:100558002C40346040F2020407EA0404A4B234B127
:1005680009F214552C6844EA08042C6007E009F2E3
:1005780014566FEA0805EDB234682C40346040F236
:10058800080407EA0404A4B234B109F20C552C6833
:1005980044EA08042C6007E009F20C566FEA0805E3
:1005A800EDB234682C40346040F2100407EA0404C9
:1005B800A4B234B109F5A0652C6844EA08042C609B
:1005C80007E009F5A0666FEA0805EDB234682C402B
:1005D800346040F2200407EA0404A4B234B109F2FA
:1005E80004552C6844EA08042C6007E009F2045614
:1005F8006FEA0805EDB234682C40346040F24004DC
:1006080007EA0404A4B234B109F5A1652C6844EAE8
:1006180008042C6007E009F5A1666FEA0805EDB249
:1006280034682C40346041F2000407EA0404A4B2A0
:10063800012C13D042F2000407EA0404A4B2012CEE
:100648000CD044F2000407EA0404A4B2012C05D03B
:10065800DEB24B46B8B25FFA88F53CE000200026CF
:10066800DAB2BBB207465FFA88F04946082E13D2C1
:1006780020FA06F4E4B204F00104E4B24CB17500C7
:100688002DB2032424B2AC4024B247EA04052F4615
:10069800FFE7761CF6B2E9E701F6C476FD43346855
:1006A8002C40346001F23C56C543EDB234682C400E
:1006B800346001F5A166C543EDB234682C4034605E
:1006C80001F20456C543EDB234682C403460C5B21B
:1006D80098B20B46D6B2002141F2000400EA0404A5
:1006E800A4B23CB300220F46E9B2082A13D221FA79
:1006F80002F4E4B204F00104E4B24CB155002DB2A6
:10070800012424B2AC4024B247EA04052F46FFE78F
:10071800521CD2B2E9E703F6C4752C683C432C603E
:1007280003F5A1652C680C432C603D461F4683B237
:10073800C8B203E01F4683B2E8B20D4642F2000495
:1007480003EA0404A4B26CB30022A8463946082A76
:1007580013D220FA02F4E4B204F00104E4B24CB17A
:1007680055002DB2032424B2AC4024B248EA040553
:10077800A846FFE7521CD2B2E9E701F6C4752C6817
:1007880044EA08042C6001F23C552C6804432C60B0
:1007980001F5A1652C6804432C60F7B20E46C2B27D
:1007A80098B205E00197C2B298B2F7B2A846019E86
:1007B80044F2000400EA0404A4B284B30023D1B2D2
:1007C800082B14D221FA03F4E4B204F00104E4B2D1
:1007D80054B15D002DB2032424B2AC4024B248EADF
:1007E800040422469046FFE75B1CDBB2E8E706F606
:1007F800C4752C6844EA08042C6006F23C552C6841
:100808000C432C6006F5A1652C680C432C6006F29D
:1008180004552C680C432C60FBB2324602E0D1B27E
:100828003246FBB240F2800400EA0404A4B274B178
:1008380040F2400400EA0404A4B22CB102F5A36516
:100848002C680C432C6001E00120FAE006E002F578
:10085800A366CD43EDB234682C40346040F20014F6
:1008680000EA0404A4B22CB102F21C552C680C4313
:100878002C6006E002F21C56CD43EDB234682C40E1
:10088800346040F2002400EA0404A4B2002C3AD0F8
:10089800104CA24240F2000500D001250E4CA242A5
:1008A80040F2000400D0012425400C4CA24240F242
:1008B800000400D001242540094CA24240F2000463
:1008C80000D0012425400DE000F0FFFF00000000EB
:1008D8000100000000C0054000B005400090054040
:1008E80000100640594CA24240F2000400D00124F6
:1008F80005EA04040CB10120A3E002F5A5652C6803
:100908000C432C602AE0524CA24240F2000500D170
:100918000125504CA24240F2000400D10124254395
:100928004D4CA24240F2000400D1012425434B4C17
:10093800A24240F2000400D101242543434CA242C4
:1009480040F2000400D1012445EA040434B102F560
:10095800A566CD43EDB234682C40346040F60004FF
:1009680000EA0404A4B22CB102F5A6652C680C4375
:100978002C6006E002F5A666CD43EDB234682C4043
:10098800346040F2004400EA0404A4B22CB102F539
:1009980084652C680C432C6006E002F58466CD4320
:1009A800EDB234682C4034600BB9002049E00F2BBD
:1009B80001D9012045E0002700208DF80430C3B29A
:1009C80010469DF80420082B12D221FA03F4E4B251
:1009D80004F00104E4B244B19D002DB24FF00F04BD
:1009E800AC4047EA04052F46FFE75B1CDBB2EAE7A9
:1009F80000F22C56FD4334682C4034600026002356
:100A08008DF80430CBB29DF80410082913D223FACC
:100A180001F4E4B204F00104E4B24CB1D5B28C00A4
:100A280024B205FA04F446EA040425462E46FFE7F4
:100A3800491CC9B2E9E700F22C552C6834432C60F4
:100A48000020DDF800E002B0704700BF005006400B
:100A580000C0054000B00540009005400010064069
:1002080081B0664900EA010108467DE06449096851
:1002180041F0010262490A60BEE06149096841F0A3
:1002280002025F490A60B7E05D49096841F00402CB
:100238005B490A60B0E05A49096841F00802584928
:100248000A60A9E05649096841F0100254490A6059
:10025800A2E05349096841F0200251490A609BE035
:100268004F49096841F040024D490A6094E04C4901
:10027800096841F080024A490A608DE048490968E6
:1002880041F4807246490A6086E04549096841F4AC
:10029800007243490A607FE04149096841F480627D
:1002A8003F490A6078E03E49096841F400623C49E8
:1002B8000A6071E03A49096841F4805238490A6095
:1002C8006AE03749096841F4005235490A6063E039
:1002D8003349096841F4804231490A605CE0304999
:1002E800096841F400422E490A6055E02C49096822
:1002F80041F480322A490A604EE02949096841F4EC
:10030800003227490A6047E0264988423FF47EAF19
:10031800254988423FF481AF244988423FF484AF9D
:10032800234988423FF487AF224988423FF48AAF85
:10033800214988423FF48DAF204988423FF490AF6D
:100348001F4988423FF493AF1E4988423FF496AF55
:100358001D4988423FF499AF1C4988423FF49CAF3D
:100368001B4988423FF49FAF1A4988423FF4A2AF25
:10037800194988423FF4A5AF184988423FF4A8AF0D
:10038800174988423FF4ABAF164988423FF4AEAFF5
:10039800154988423FF4B1AF01B0704700F0FFFF44
:1003A80008E60F40008005400090054000A0054089
:1003B80000B0054000C0054000D0054000E0054001
:1003C80000F00540000006400010064000200640EE
:1003D80000300640004006400050064000600640DD
:0C03E800007006400080064000900640B7
:100C400081B0CDF800E0002440F240031BB240F236
:100C5000001212B21A4393B2012210B4FFF744FCFF
:0A0C600001B0DDF800E001B07047BC
:10100C0081B0CDF800E091E0012904D120215A48AB
:10101C00FFF726FE03E020215748FFF70BFEA5E063
:10102C00012904D102215448FFF71AFE03E00221E2
:10103C005148FFF7FFFD99E0012904D120214F48C9
:10104C00FFF70EFE03E020214C48FFF7F3FD8DE087
:10105C00012904D104214A48FFF702FE03E00421D0
:10106C004748FFF7E7FD81E0012904D110214448EE
:10107C00FFF7F6FD03E010214148FFF7DBFD75E0BB
:10108C00012904D120213E48FFF7EAFD03E020218D
:10109C003B48FFF7CFFD69E0012904D10221394813
:1010AC00FFF7DEFD03E002213648FFF7C3FD5DE0EC
:1010BC00012904D140213348FFF7D2FD03E0402140
:1010CC003048FFF7B7FD51E0012904D110212E481B
:1010DC00FFF7C6FD03E010212B48FFF7ABFD45E001
:1010EC00012904D120212848FFF7BAFD03E0202173
:1010FC002548FFF79FFD39E0012904D104211F4841
:10110C00FFF7AEFD03E004211C48FFF793FD2DE033
:10111C00012904D108211948FFF7A2FD03E0082199
:10112C001648FFF787FD21E0012020E000283FF45E
:10113C006BAF01283FF474AF02283FF47DAF032856
:10114C003FF486AF04283FF48FAF05283FF498AFE7
:10115C0006283FF4A1AF0728AAD00828B4D0092844
:10116C00BED00A28C8D00B28D2D0DDE70020DDF88D
:10117C0000E001B0704700BF00C005400090054082
:0C118C000080054000B0054000A00540B8
:1011F80081B0CDF800E009E00846FFF725FE0AE0D7
:101208000846FFF70BFE06E0012004E00028F3D0B3
:0E1218000128F5D0F8E7DDF800E001B07047DE
:100E500081B0CDF800E000F208010B68011D0A68BE
:100E60000168084691B29AB2034BFFF71DFE0020BD
:0C0E7000DDF800E001B07047E41600005F
:100AA8008AB0CDF800E008901846ADF824200DF182
:100AB800140B0BF10B0ADFF82CC1FFF707FDADF89B
:100AC8000410FFF7B9FCBDF8041001256DB2464CBF
:100AD8002560464C206800256DB2454C2560454C84
:100AE8002160BDF82450444C2560444D444C256099
:100AF800444D454C2560FFF799FC40F2E83400FB73
:100B080004F5089CB5FBF4F4029429B9029C022C64
:100B180001DA0224029404E0029C0C2C01DA0C2471
:100B28000294022424B2ADF81040BDF91040B4F18B
:100B3800FF0F41DA002212B210B2B0F5807F30DA2E
:100B4800BDF91050441C24B26543029C641B0394F5
:100B5800002C04DA039D4FF0FF346C43039410B962
:100B6800039C069404E0039D069CAC4200DA18E05E
:100B7800039D059CAC4202DC039C04B107E0039C86
:100B88000594BDF910408DF81C408DF81D00059C9A
:100B98001CB901248DF81E4003E0441C22B210B297
:100BA800CBE79DF81E40012C00D105E0BDF91040AF
:100BB800A41CADF81040B8E79DF81C50134C2560F4
:100BC8009DF81D4025022DB20B4C246844EA05050A
:100BD800094C256001256DB2054C2560DDF800E063
:100BE8000AB070472C18000080C3FC431CE60F4075
:100BF800840010420480004000800040F50300009B
:100C080020000020190C0000240000201080004063
:1004D40081B01CF8019B0BF8019BBBEB0A0FF8D110
:0404E40001B07047AC
:1004400081B0CDF800E040F2000B82460AF1D801FD
:1004500009788B4539D20C210BFB01F10AEB010124
:100460008C460CF108010978A9B90CF1080109784A
:10047000CCB20CF1060109888BB20CF104010978A9
:10048000CAB2DCF800100846D1B2002210B400F065
:100490002BF801B014E00CF108010978CCB20CF192
:1004A000060109888BB20CF104010978CAB2DCF8A4
:1004B00000100846D1B20F2210B400F015F801B0B8
:1004C0000BF1010B5FFA8BFBC0E7DDF800E001B038
:0204D000704773
:0C04340001480068704700BF1C00002059
:100E240081B0CDF800E000F208010B68011D0A68EA
:100E34000168084691B29AB2034BFFF733FE0020D3
:0C0E4400DDF800E001B07047E41600008B
:1013B00040F6FE07C0F23D077F1EFDD100BF00BF13
:0813C00000BF00BF00BF704731
:10152C0081B0CDF800E004490448FFF7A5FEDDF8D2
:10153C0000E001B0704700BF38180000C017000071
:1012840081B0CDF800E003460846FFF763FD184639
:10129400FFF744FD0020094C2468A0470020084CB7
:1012A4002468A0470120074C2468A0470120064C6D
:1012B4002468A047DDF800E001B070470400002076
:0C12C4000C00002010000020080000209A
:0C0E000001490860704700BF907FB842B5
:0C0DF40001490860704700BF807FB842D2
:0C0E180001490860704700BF807FB242B3
:0C0E0C0001490860704700BF887FB042B9
:0C11D40001490860704700BF907FB042E6
:0C11C80001490860704700BF947FB042EE
:0C11EC0001490860704700BF807FB642D8
:0C11E00001490860704700BF907FBA42D0
:0C11BC0001490860704700BF987FB442F2
:0C11B00001490860704700BF9C7FB442FA
:0C11980001490860704700BF887FB24228
:0C11A40001490860704700BF8C7FB24218
:0C0CFC0001490860704700BF947FB842B7
:0C0CF00001490860704700BF847FB842D3
:0C0D140001490860704700BF947FB242A4
:0C0D080001490860704700BF887FB042BE
:0C0CCC0001490860704700BF907FB042F3
:0C0CC00001490860704700BF947FB042FB
:0C0CE40001490860704700BF847FB642E1
:0C0CD80001490860704700BF987FB642D9
:0C0DD00001490860704700BF907FB442EA
:0C0DC40001490860704700BF947FB442F2
:0C0DE80001490860704700BF887FB242DC
:0C0DDC0001490860704700BF8C7FB242E4
:100D5800026803490A60011D0A6802490A6070476F
:080D6800140000201800002017
:100D200000F208010A6808490A60011D0A680749BB
:100D30000A6000F218010A6805490A6000F21C0105
:100D40000A6804490A607047040000200C00002073
:080D5000080000201000002043
:10144C0081B0CDF800E042F2B6010020FFF73AFF80
:10145C0041F2400142F2B600FFF734FF40F2B051C6
:10146C0041F24000FFF72EFF40F2337140F2B050D2
:10147C00FFF728FF3F2140F23370FFF723FF40F2C4
:10148C0039313F20FFF71EFF002140F23930FFF7C2
:10149C0019FFFFF7C3FE40F237310020FFF712FFB0
:1014AC00382140F23730FFF70DFF40F2333138204E
:1014BC00FFF708FF40F2363140F23330FFF702FFFE
:1014CC0040F2373140F23630FFF7FCFE082140F293
:1014DC003730FFF7F7FE42F236410820FFF7F2FEF5
:1014EC003E2142F23640FFF7EDFE42F2B6013E20BD
:1014FC00FFF7E8FE082142F2B600FFF7E3FE40F2E8
:10150C0033710820FFF7DEFE002140F23370FFF745
:0E151C00D9FEFFF783FEDDF800E001B0704756
:1012D00084B0CDF800E0ADF80800ADF80C100023A4
:1012E0002E4A13702D4A1278192A52D201ACBDF839
:1012F0000C20120A2270631CBDF80C2002F0FF02C1
:101300001A70A31CBDF80820120A1A70E31CBDF85D
:10131000082002F0FF021A7004212046FFF734FD76
:1013200000201F4C2468A04701201D4C2468A047C2
:1013300000201C4C2468A047FFF71AFD0120194C1F
:101340002468A0470020184C2468A0470120164CB0
:101350002468A0470020154C2468A047FFF708FD2B
:101360000120124C2468A04700200D4C2468A0479F
:1013700001200B4C2468A04700200A4C2468A04799
:101380000120084C2468A047044B1A78521C1A709C
:10139000A8E7DDF800E004B0704700BF00000020BF
:1013A00004000020080000200C0000201000002095
:100D880083B0CDF800E08AB2014690B283B2421E29
:100D980090B26BB10A78D4B2ADF804000291A0B257
:100DA800054C2468A0470299BDF80400491CEDE7EA
:0C0DB800DDF800E003B0704714000020DC
:100C180081B0CDF800E0FFF7E9FBDDF800E001B0B6
:020C2800704713
:1003F40081B0054908600549096801B9FBE702496C
:10040400086801B0704700BF0880004088011042AE
:100C980081B0CDF800E0FFF7B9FBDDF800E001B066
:020CA800704793
:1004140081B0054908600549096801B9FBE702494B
:10042400086801B0704700BF08900040880112427C
:100CAC0081B0CDF800E0FFF7E9FEDDF800E001B01F
:020CBC0070477F
:100A880081B0054908600549096801B9FBE70249D1
:100A9800086801B0704700BF08A0004088011442F0
:100C2C0081B0CDF800E0FFF719FFDDF800E001B06E
:020C3C007047FF
:100A680081B0054908600549096801B9FBE70249F1
:100A7800086801B0704700BF08B0004088011642FE
:100D700041F67E27C0F206077F1EFDD100BF00BFEF
:080D800000BF00BF00BF704777
:1012280045F6FE17C0F262277F1EFDD100BF00BF42
:0812380000BF00BF00BF7047BA
:1015B40081B0CDF800E0344A344B354C354D364ECD
:1015C4004FF03011354801600021354801606FF05B
:1015D400010003EA000133480160C3F3C00018B9F5
:1015E400FFF7C4FBFFF7C2FBC3F3000018B10121EE
:1015F40049B22D4801602D48864203D92C49274819
:10160400016021E02B48864203D92B49234801601D
:101614001AE04CF25030864203D928491F48016031
:1016240012E047F23050864203D925491B48016035
:101634000AE0B6F57A5F03D922491848016003E04D
:101644004FF03011154801601F4804601F480560C1
:101654006FF0805002EA000111480160012149B293
:101664001B4801601B48016002F0805038B11A48E1
:10167400006800B9FBE7012149B218480160DDF8B0
:1016840000E001B0704700BF0400303311000000D7
:101694001800800000000000C0D40100C0E00F402A
:1016A400B0E00F407CE00F40800FFC43A0860100B7
:1016B400960130008038010055013000D30030001D
:1016C400B20030007100300060E10F4064E10F406F
:1016D4007C16FC437816FC43002DFC437016FC4337
:1015800081B002490248016001B07047C0D4010037
:041590001C0000201B
:08154C0081B0FEE701B0704719
:1015540081B04EF68850CEF20000016841F470016B
:10156400016000BF00BF00BF00BFF1EE100A40F4ED
:0A1574004000E1EE100A01B07047DC
:1018400000B5DFF810B0DFF810A0FFF7BDFD00BD58
:0C185000704700BF0000002028000020AE
:1016E40000800540040040050F0000000080054014
:1016F400100040050F000000008005402000400558
:101704000F000000000000000000000000000000C6
:1017140000000000000000000000000000000000C5
:1017240000000000000000000000000000000000B5
:1017340000000000000000000000000000000000A5
:101744000000000000000000000000000000000095
:101754000000000000000000000000000000000085
:101764000000000000000000000000000000000075
:101774000000000000000000000000000000000065
:101784000000000000000000000000000000000055
:101794000000000000000000000000000000000045
:1017A4000000000000000000000000000000000035
:0C17B40000000000000000000300000026
:1017C000010E0000F50D0000190E00000D0E0000C6
:1017D000D5110000C9110000ED110000E111000059
:1017E000BD110000B111000099110000A511000009
:1017F000FFFFFFFFFFFFFFFFFFFFFFFFFFFFFFFFF9
:10180000FFFFFFFFFFFFFFFFFFFFFFFFFFFFFFFFE8
:10181000FFFFFFFFFFFFFFFFFFFFFFFFFFFFFFFFD8
:0C18200040420F0000000000C700000064
:04182C00FFFFFF7F3C
:0418300000000000B4
:021834000200B0
:0118360000B1
:08183800190C0000F50300008B
:00000001FF
