:10000000E0EF05F00000000000EF00F0000000004D
:0A0010000000000000000000F3D71C
:0C001C0048B002D08B9A01D08B8A1200F1
:0C00280048B002D08B9801D08B881200E9
:0C00340048B002D0899801D089881200E1
:0C00400048B002D08B9601D08B861200D5
:0C004C0048B002D08B9C01D08B8C1200BD
:0C00580048B002D08B9601D08B861200BD
:0C00640048B002D08A9201D08A821200BB
:0C00700048B002D08B9601D08B861200A5
:0C007C0048B002D08B9601D08B86120099
:0C00880048B002D08D9201D08D82120091
:0C00940048B002D08A9001D08A8012008F
:0C00A00048B002D08B9E01D08B8E120065
:0C00AC0048B002D08B9C01D08B8C12005D
:0C00B80048B002D0899201D08982120069
:0C00C40048B002D08B9801D08B8812004D
:0C00D00048B002D08B9801D08B88120041
:0C00DC0048B002D08B9401D08B8412003D
:0C00E80048B002D08B9801D08B88120029
:0C00F40048B002D08B9801D08B8812001D
:0C01000048B002D08B9601D08B86120014
:0C010C0048B002D08B9A01D08B8A120000
:0C01180048B002D08F9401D08F841200F8
:0C01240048B002D08A9401D08A841200F6
:0C01300048B002D0899401D089841200EC
:0C013C0048B002D08B9801D08B881200D4
:0C01480048B002D08B9E01D08B8E1200BC
:0C01540048B002D08D9601D08D861200BC
:0C01600048B002D08F9001D08F801200B8
:0C016C0048B002D08F9201D08F821200A8
:0C01780048B002D08D9401D08D8412009C
:0C01840048B002D08B9001D08B8012009C
:0C01900048B002D08D9001D08D8012008C
:0C019C0048B002D0899001D08980120088
:1001A80048C0C9FF016A0150000A05E1000EC7B046
:0C01B800010E016EF8D7C9CF01F0120053
:0C01C40048B002D08B9601D08B86120050
:0C01D00048B002D08B9201D08B8212004C
:1001DC0048C06AFF016A0150000A05E1000E68B0D0
:0C01EC00010E016EF8D76ACF01F012007E
:0C01F80048B002D08B9A01D08B8A120014
:10020400FF0E2E6EFF0E2F6EFF0E306EFF0E316E40
:10021400A80E326E010E336E480E346E000E356E2B
:10022400949A4450040A02E1948601D094969488E6
:10023400C66AC79CC79E4450C6124650C612455053
:10024400C712465205E04750000AD8B4C78C03D001
:0A0254004752D8A4C78CC68A1200D6
:10025E00F250026EF29E0500FF6A0150FE6E0050D3
:08026E00FD6E02BEF28E1200CB
:1002760051D03FB002D0929401D092840F012595BF
:100286006ED03FB002D0969601D0968668D03FB029
:1002960002D0969401D0968462D03FB002D0949654
:1002A60001D094865CD03FB002D0949801D0948857
:1002B60056D03FB002D0949A01D0948A50D03FB025
:1002C60002D0989001D098804AD03FB002D0939443
:1002D60001D0938444D03FB002D0989401D0988442
:1002E6000F0123953CD03FB002D0989201D098825E
:1002F6000F01239334D03FB002D0949601D0948658
:100306002ED03FB002D0949801D0948828D0010E08
:10031600006E27D03E50000AACE03E50010AB1E024
:100326003E50020AB4E03E50030AB7E03E50040ACB
:10033600BAE03E50050ABDE03E50060AC0E03E5017
:10034600070AC3E03E50080AC6E03E50090ACBE061
:100356003E500A0AD0E03E500B0AD3E0D8D7000E32
:04036600006E120013
:10036A003EC0F6FF3FC0F7FF40C0F8FF0900F5CFD7
:10037A0016F00900F5CF17F00900F5CF18F00900BB
:10038A00F5CF19F0040E3E24F66E000E3F20F76EEC
:10039A00000E4020F86E0900F5CF1AF00900F5CFDB
:1003AA001BF00900F5CF1CF00900F5CF1DF0120073
:1003BA003EC0F6FF3FC0F7FF40C0F8FF0900F5CF87
:1003CA0044F0040E3E24F66E000E3F20F76E000E37
:1003DA004020F86E0900F5CF45F0080E3E24F66E6F
:1003EA00000E3F20F76E000E4020F86E0900F5CF90
:1003FA0046F00C0E3E24F66E000E3F20F76E000EFD
:10040A004020F86E0900F5CF47F0F7DE000E006EC7
:02041A001200CE
:10041C003EC0F6FF3FC0F7FF40C0F8FF0900F5CF24
:10042C0044F0040E3E24F66E000E3F20F76E000ED4
:10043C004020F86E0900F5CF45F0080E3E24F66E0C
:10044C00000E3F20F76E000E4020F86E0900F5CF2D
:10045C0046F00C0E3E24F66E000E3F20F76E000E9A
:10046C004020F86E0900F5CF47F0C6DE000E006E96
:02047C0012006C
:10047E003EC0F6FF3FC0F7FF40C0F8FF0900F5CFC2
:10048E0044F0040E3E24F66E000E3F20F76E000E72
:10049E004020F86E0900F5CF45F0080E3E24F66EAA
:1004AE00000E3F20F76E000E4020F86E0900F5CFCB
:1004BE0046F00C0E3E24F66E000E3F20F76E000E38
:1004CE004020F86E0900F5CF47F095DE000E006E65
:0204DE0012000A
:1004E0004DD03FB002D0929001D092800F01259163
:1004F0006AD03FB002D0949001D0948064D03FB0D5
:1005000002D0969001D096805ED03FB002D09496F3
:1005100001D0948658D03FB002D0949801D09488EE
:1005200052D03FB002D0949A01D0948A4CD03FB0C0
:1005300002D0949201D0948246D03FB002D09390E2
:1005400001D0938040D03FB002D0949E01D0948ED1
:100550003AD03FB002D0949C01D0948C34D03FB0BC
:1005600002D0949601D094862ED03FB002D09498B9
:1005700001D0948828D0010E006E27D03E50000A8A
:10058000B0E03E50010AB5E03E50020AB8E03E50ED
:10059000030ABBE03E50040ABEE03E50050AC1E03B
:1005A0003E50060AC4E03E50070AC7E03E50080A23
:1005B000CAE03E50090ACDE03E500A0AD0E03E5063
:0C05C0000B0AD3E0D8D7000E006E12002A
:1005CC003EC042F03FC043F040C000F041C001F0DB
:1005DC00010E405E000E415A0050011012E018C08E
:1005EC00E1FF19C0E2FF42C0E9FF43C0EAFFEECFD2
:1005FC00E6FF16C000F017C001F02BDE424A432A7A
:04060C00E3D712001E
:10061000D00E0C6EC90E0D6E0D2EFED70C2EFCD713
:06062000000000001200C2
:100626004DD03FB002D0929201D092820F01259315
:100636006AD03FB002D0929801D0928864D03FB081
:1006460002D0969201D096825ED03FB002D09496A8
:1006560001D0948658D03FB002D0949801D09488A7
:1006660052D03FB002D0949A01D0948A4CD03FB079
:1006760002D0949401D0948446D03FB002D0939295
:1006860001D0938240D03FB002D0949E01D0948E88
:100696003AD03FB002D0949C01D0948C34D03FB075
:1006A60002D0949601D094862ED03FB002D0949872
:1006B60001D0948828D0010E006E27D03E50000A43
:1006C600B0E03E50010AB5E03E50020AB8E03E50A6
:1006D600030ABBE03E50040ABEE03E50050AC1E0F4
:1006E6003E50060AC4E03E50070AC7E03E50080ADC
:1006F600CAE03E50090ACDE03E500A0AD0E03E501C
:0C0706000B0AD3E0D8D7000E006E1200E2
:10071200080E3E24F66E000E3F20F76E000E4020BB
:10072200F86E0900F5CF22F00900F5CF23F0090099
:10073200F5CF24F00900F5CF25F0040E3E24F66E25
:10074200000E3F20F76E000E4020F86E0900F5CF34
:1007520026F00900F5CF27F00900F5CF28F00900AF
:10076200F5CF29F0180E3E24F66E000E3F20F76EEC
:10077200000E4020F86E0900F5CF2AF00900F5CFEF
:100782002BF00900F5CF2CF00900F5CF2DF01C0E4F
:100792003E24F66E000E3F20F76E000E4020F86EEB
:1007A2000900F5CF1EF00900F5CF1FF00900F5CFC3
:0A07B20020F00900F5CF21F012003D
:1007BC0015D037C03EF038C03FF08CDE19D037C0B2
:1007CC003EF038C03FF029DF13D037C03EF038C0C0
:1007DC003FF04BDD0DD0010E006E0AD03650000AF2
:1007EC00E8E03650010AEBE03650020AEEE0F3D7AF
:0207FC001200E9
:1007FE001BD037C03EF038C03FF039C040F0D6DDD8
:10080E001DD037C03EF038C03FF039C040F0FFDD9C
:10081E0015D037C03EF038C03FF039C040F028DE6A
:10082E000DD0010E006E0AD03650000AE2E03650AE
:0E083E00010AE7E03650020AECE0F3D71200A0
:10084C00156A320E155CD8B09BD039C000F0016A25
:10085C0000C03AF0FF0E38143B6E37C000F0016A4E
:10086C0000C03CF0FF0E36143D6E3A0E3E6E000E8C
:10087C003F6E040E406E000E416EA2DE24C0E1FFFE
:10088C0025C0E2FFE66A22C000F023C001F0E1DCE3
:10089C0024C0E1FF25C0E2FF010EE66E22C000F08D
:1008AC0023C001F0D6DC2CC0E1FF2DC0E2FFE66ACC
:1008BC002AC000F02BC001F0CCDCA4DE2CC0E1FF80
:1008CC002DC0E2FF010EE66E2AC000F02BC001F035
:1008DC00C0DC28C0E1FF29C0E2FFE66A26C000F0B8
:1008EC0027C001F0B6DC28C0E1FF29C0E2FF010EF1
:1008FC00E66E26C000F027C001F0ABDC20C0E1FFA3
:10090C0021C0E2FFE66A1EC000F01FC001F0A1DCAE
:10091C0079DE20C0E1FF21C0E2FF010EE66E1EC0B1
:10092C0000F01FC001F095DC24C0E1FF25C0E2FF00
:10093C00E66A22C000F023C001F08BDC24C0E1FF8A
:10094C0025C0E2FF010EE66E22C000F023C001F0CC
:10095C0080DC2CC0E1FF2DC0E2FFE66A2AC000F06B
:10096C002BC001F076DC2CC0E1FF2DC0E2FF010EA4
:10097C00E66E2AC000F02BC001F06BDC152A61D7A3
:02098C00120057
:10098E00520E0B6E2B0E0C6E000E0D6E0D2EFED734
:0C099E000C2EFCD70B2EFAD70000120024
:1009AA0039C03EF03AC03FF03BC040F0D9DC36C017
:1009BA003EF037C03FF038C040F0A6DE24C0E1FF69
:1009CA0025C0E2FFE66A22C000F023C001F042DC43
:1009DA0028C0E1FF29C0E2FFE66A26C000F027C06E
:1009EA0001F038DC20C0E1FF21C0E2FF010EE66E13
:1009FA001EC000F01FC001F02DDC2CC0E1FF2DC08D
:100A0A00E2FF010EE66E2AC000F02BC001F022DCE4
:020A1A001200C8
:100A1C00090E0B6E1E0E0C6EE40E0D6E0D2EFED717
:0C0A2C000C2EFCD70B2EFAD70000120095
:100A3800366A020E376E386ABDDE366A010E376EC8
:100A4800386AB8DE366A060E376E386AB3DE366A3A
:100A5800070E376E386AAEDE366A2A0E376E0C0E0F
:0C0A6800386E000E396EC7DED5DF1200BC
:100A7400B60E366E200E376E400E386E100E396E7E
:100A8400E3DE400E366E100E376EB00E386E050E75
:100A9400396EDADEB00E366E050E376E330E386EF2
:100AA400070E396ED1DE330E366E070E376E3F0EEB
:100AB400386E000E396EC8DE3F0E366E000E376E8D
:100AC400390E386E030E396EBFDE390E366E030EE4
:100AD400376E386A396AB8DE58DF370E366E030E61
:100AE400376E380E386E000E396EAEDE380E366E46
:100AF400000E376E330E386E030E396EA5DE330EDC
:100B0400366E030E376E360E386E030E396E9CDE6B
:100B1400360E366E030E376E370E386E030E396E90
:100B240093DE370E366E030E376E080E386E000EE7
:100B3400396E8ADE080E366E000E376E360E386E4B
:100B4400240E396E81DE360E366E240E376E3E0E5E
:100B5400386E000E396E78DE3E0E366E000E376E3D
:100B6400B60E386E200E396E6FDEB60E366E200E5F
:100B7400376E080E386E000E396E66DE080E366E5D
:100B8400000E376E330E386E070E396E5DDE330E8F
:100B9400366E070E376E386A396A56DEF6DE120094
:100BA400CA0E366E0B0E376E000E386E3A0E396E64
:0C0BB4000C0E3A6E000E3B6EF6DE1200D6
:0A0BC0003BDFF0DF57DFFED7FFD761
:100BCA009C0148008401480090014800C401480083
:100BDA00E8004800F8014800D001480094004800A5
:100BEA00A0004800AC0048007C004800C40048004F
:100BFA00FFFFFFFFFFFFFFFFFFFFFFFFFFFFFFFFFB
:100C0A00FFFFFFFFFFFFFFFFFFFFFFFFFFFFFFFFEA
:100C1A00FFFFFFFFFFFFFFFFFFFFFFFFFFFFFFFFDA
:100C2A0002000000000000000000000001000000B7
:080C3A00A8014800FFFFFFFFC5
:020000040030CA
:0E00000015137F7CF98B91FFFFC0FFE0FF40DE
:00000001FF
